{
  "_format": "hh-sol-artifact-1",
  "contractName": "Issuer",
  "sourceName": "contracts/Issuer.sol",
  "abi": [
    {
      "inputs": [
        {
          "internalType": "address",
          "name": "realEstateToken",
          "type": "address"
        },
        {
          "internalType": "address",
          "name": "functionsRouterAddress",
          "type": "address"
        }
      ],
      "stateMutability": "nonpayable",
      "type": "constructor"
    },
    {
      "inputs": [],
      "name": "EmptySource",
      "type": "error"
    },
    {
      "inputs": [],
      "name": "LatestIssueInProgress",
      "type": "error"
    },
    {
      "inputs": [],
      "name": "NoInlineSecrets",
      "type": "error"
    },
    {
      "inputs": [],
      "name": "OnlyRouterCanFulfill",
      "type": "error"
    },
    {
      "anonymous": false,
      "inputs": [
        {
          "indexed": true,
          "internalType": "address",
          "name": "from",
          "type": "address"
        },
        {
          "indexed": true,
          "internalType": "address",
          "name": "to",
          "type": "address"
        }
      ],
      "name": "OwnershipTransferRequested",
      "type": "event"
    },
    {
      "anonymous": false,
      "inputs": [
        {
          "indexed": true,
          "internalType": "address",
          "name": "from",
          "type": "address"
        },
        {
          "indexed": true,
          "internalType": "address",
          "name": "to",
          "type": "address"
        }
      ],
      "name": "OwnershipTransferred",
      "type": "event"
    },
    {
      "anonymous": false,
      "inputs": [
        {
          "indexed": true,
          "internalType": "bytes32",
          "name": "id",
          "type": "bytes32"
        }
      ],
      "name": "RequestFulfilled",
      "type": "event"
    },
    {
      "anonymous": false,
      "inputs": [
        {
          "indexed": true,
          "internalType": "bytes32",
          "name": "id",
          "type": "bytes32"
        }
      ],
      "name": "RequestSent",
      "type": "event"
    },
    {
      "inputs": [],
      "name": "acceptOwnership",
      "outputs": [],
      "stateMutability": "nonpayable",
      "type": "function"
    },
    {
      "inputs": [],
      "name": "cancelPendingRequest",
      "outputs": [],
      "stateMutability": "nonpayable",
      "type": "function"
    },
    {
      "inputs": [],
      "name": "getNftMetadata",
      "outputs": [
        {
          "internalType": "string",
          "name": "",
          "type": "string"
        }
      ],
      "stateMutability": "view",
      "type": "function"
    },
    {
      "inputs": [],
      "name": "getPrices",
      "outputs": [
        {
          "internalType": "string",
          "name": "",
          "type": "string"
        }
      ],
      "stateMutability": "view",
      "type": "function"
    },
    {
      "inputs": [
        {
          "internalType": "bytes32",
          "name": "requestId",
          "type": "bytes32"
        },
        {
          "internalType": "bytes",
          "name": "response",
          "type": "bytes"
        },
        {
          "internalType": "bytes",
          "name": "err",
          "type": "bytes"
        }
      ],
      "name": "handleOracleFulfillment",
      "outputs": [],
      "stateMutability": "nonpayable",
      "type": "function"
    },
    {
      "inputs": [
        {
          "internalType": "address",
          "name": "to",
          "type": "address"
        },
        {
          "internalType": "uint256",
          "name": "amount",
          "type": "uint256"
        },
        {
          "internalType": "uint64",
          "name": "subscriptionId",
          "type": "uint64"
        },
        {
          "internalType": "uint32",
          "name": "gasLimit",
          "type": "uint32"
        },
        {
          "internalType": "bytes32",
          "name": "donID",
          "type": "bytes32"
        }
      ],
      "name": "issue",
      "outputs": [
        {
          "internalType": "bytes32",
          "name": "requestId",
          "type": "bytes32"
        }
      ],
      "stateMutability": "nonpayable",
      "type": "function"
    },
    {
      "inputs": [],
      "name": "owner",
      "outputs": [
        {
          "internalType": "address",
          "name": "",
          "type": "address"
        }
      ],
      "stateMutability": "view",
      "type": "function"
    },
    {
      "inputs": [
        {
          "internalType": "address",
          "name": "to",
          "type": "address"
        }
      ],
      "name": "transferOwnership",
      "outputs": [],
      "stateMutability": "nonpayable",
      "type": "function"
    }
  ],
  "bytecode": "0x61052060405261043b60c08181529061184a60e0396000906100219082610268565b50604051806102e001604052806102b18152602001611c856102b1913960019061004b9082610268565b5034801561005857600080fd5b50604051611f36380380611f3683398101604081905261007791610342565b6001600160a01b03811660805233806000816100da5760405162461bcd60e51b815260206004820152601860248201527f43616e6e6f7420736574206f776e657220746f207a65726f000000000000000060448201526064015b60405180910390fd5b600280546001600160a01b0319166001600160a01b038481169190911790915581161561010a5761010a8161011f565b505050506001600160a01b031660a052610375565b336001600160a01b038216036101775760405162461bcd60e51b815260206004820152601760248201527f43616e6e6f74207472616e7366657220746f2073656c6600000000000000000060448201526064016100d1565b600380546001600160a01b0319166001600160a01b03838116918217909255600254604051919216907fed8889f560326eb138920d842192f0eb3dd22b4f139c87a2c57538e05bae127890600090a350565b634e487b7160e01b600052604160045260246000fd5b600181811c908216806101f357607f821691505b60208210810361021357634e487b7160e01b600052602260045260246000fd5b50919050565b601f82111561026357806000526020600020601f840160051c810160208510156102405750805b601f840160051c820191505b81811015610260576000815560010161024c565b50505b505050565b81516001600160401b03811115610281576102816101c9565b6102958161028f84546101df565b84610219565b6020601f8211600181146102c957600083156102b15750848201515b600019600385901b1c1916600184901b178455610260565b600084815260208120601f198516915b828110156102f957878501518255602094850194600190920191016102d9565b50848210156103175786840151600019600387901b60f8161c191681555b50505050600190811b01905550565b80516001600160a01b038116811461033d57600080fd5b919050565b6000806040838503121561035557600080fd5b61035e83610326565b915061036c60208401610326565b90509250929050565b60805160a0516114a96103a160003960006104ec01526000818161012e015261089a01526114a96000f3fe608060405234801561001057600080fd5b50600436106100885760003560e01c8063bd9a548b1161005b578063bd9a548b146100eb578063cb93ed1614610100578063e6b46ff514610108578063f2fde38b1461011057600080fd5b80630ca761751461008d5780632ea0c600146100a257806379ba5097146100c85780638da5cb5b146100d0575b600080fd5b6100a061009b366004610ff7565b610123565b005b6100b56100b0366004611083565b6101a7565b6040519081526020015b60405180910390f35b6100a06102f2565b6002546040516001600160a01b0390911681526020016100bf565b6100f36103a5565b6040516100bf9190611141565b6100a0610433565b6100f3610442565b6100a061011e366004611154565b61044f565b336001600160a01b037f0000000000000000000000000000000000000000000000000000000000000000161461016c5760405163c6829f8360e01b815260040160405180910390fd5b610177838383610463565b60405183907f85e1543bf2f84fe80c6badbce3648c8539ad1df4d2b3d822938ca0538be727e690600090a2505050565b60006101b1610567565b600454156101d257604051632db8f2c760e01b815260040160405180910390fd5b6102136040805160e0810190915280600081526020016000815260200160008152602001606081526020016060815260200160608152602001606081525090565b610283306001600160a01b031663e6b46ff56040518163ffffffff1660e01b8152600401600060405180830381865afa158015610254573d6000803e3d6000fd5b505050506040513d6000823e601f3d908101601f1916820160405261027c919081019061116f565b82906105bc565b61029761028f826105cd565b868686610895565b6040805180820182526001600160a01b03998a1681526020808201998a526000848152600690915291909120905181546001600160a01b03191699169890981788559551600190970196909655505050600482905550919050565b6003546001600160a01b0316331461034a5760405162461bcd60e51b815260206004820152601660248201527526bab9ba10313290383937b837b9b2b21037bbb732b960511b60448201526064015b60405180910390fd5b600280546001600160a01b0319808216339081179093556003805490911690556040516001600160a01b03909116919082907f8be0079c531659141344cd1fd0a4f28419497f9722a3daafe3b4186f6b6457e090600090a350565b600180546103b2906111e5565b80601f01602080910402602001604051908101604052809291908181526020018280546103de906111e5565b801561042b5780601f106104005761010080835404028352916020019161042b565b820191906000526020600020905b81548152906001019060200180831161040e57829003601f168201915b505050505081565b61043b610567565b6000600455565b600080546103b2906111e5565b610457610567565b61046081610967565b50565b805115610484578060405162461bcd60e51b81526004016103419190611141565b82600454036105625760058054839160009190826104a183611235565b909155506000868152600660209081526040918290208251808401845281546001600160a01b03908116808352600190930154938201849052935163c1341c4f60e01b8152949550937f00000000000000000000000000000000000000000000000000000000000000009093169263c1341c4f926105279291879190899060040161124e565b600060405180830381600087803b15801561054157600080fd5b505af1158015610555573d6000803e3d6000fd5b5050600060045550505050505b505050565b6002546001600160a01b031633146105ba5760405162461bcd60e51b815260206004820152601660248201527527b7363c9031b0b63630b1363290313c9037bbb732b960511b6044820152606401610341565b565b6105c98260008084610a11565b5050565b606060006105dc610100610a8f565b90506106156040518060400160405280600c81526020016b31b7b232a637b1b0ba34b7b760a11b81525082610ab090919063ffffffff16565b825161063390600281111561062c5761062c611293565b8290610ac9565b6040805180820190915260088152676c616e677561676560c01b602082015261065d908290610ab0565b604083015161067490801561062c5761062c611293565b604080518082019091526006815265736f7572636560d01b602082015261069c908290610ab0565b60608301516106ac908290610ab0565b60a08301515115610738576040805180820190915260048152636172677360e01b60208201526106dd908290610ab0565b6106e681610b02565b60005b8360a001515181101561072e576107268460a00151828151811061070f5761070f6112a9565b602002602001015183610ab090919063ffffffff16565b6001016106e9565b5061073881610b26565b608083015151156107fc5760008360200151600281111561075b5761075b611293565b036107795760405163a80d31f760e01b815260040160405180910390fd5b60408051808201909152600f81526e39b2b1b932ba39a637b1b0ba34b7b760891b60208201526107aa908290610ab0565b6107c38360200151600281111561062c5761062c611293565b6040805180820190915260078152667365637265747360c81b60208201526107ec908290610ab0565b60808301516107fc908290610b44565b60c0830151511561088d5760408051808201909152600981526862797465734172677360b81b6020820152610832908290610ab0565b61083b81610b02565b60005b8360c00151518110156108835761087b8460c001518281518110610864576108646112a9565b602002602001015183610b4490919063ffffffff16565b60010161083e565b5061088d81610b26565b515192915050565b6000807f00000000000000000000000000000000000000000000000000000000000000006001600160a01b031663461d27628688600188886040518663ffffffff1660e01b81526004016108ed9594939291906112bf565b6020604051808303816000875af115801561090c573d6000803e3d6000fd5b505050506040513d601f19601f820116820180604052508101906109309190611308565b60405190915081907f1131472297a800fee664d1d89cfa8f7676ff07189ecc53f80bbb5f4969099db890600090a295945050505050565b336001600160a01b038216036109bf5760405162461bcd60e51b815260206004820152601760248201527f43616e6e6f74207472616e7366657220746f2073656c660000000000000000006044820152606401610341565b600380546001600160a01b0319166001600160a01b03838116918217909255600254604051919216907fed8889f560326eb138920d842192f0eb3dd22b4f139c87a2c57538e05bae127890600090a350565b8051600003610a33576040516322ce3edd60e01b815260040160405180910390fd5b83836002811115610a4657610a46611293565b90816002811115610a5957610a59611293565b90525060408401828015610a6f57610a6f611293565b90818015610a7f57610a7f611293565b9052506060909301929092525050565b610a97610eff565b8051610aa39083610b51565b5060006020820152919050565b610abd8260038351610bcb565b81516105629082610cea565b8151610ad69060c2610d12565b506105c98282604051602001610aee91815260200190565b604051602081830303815290604052610b44565b610b0d816004610d7b565b600181602001818151610b209190611321565b90525050565b610b31816007610d7b565b600181602001818151610b209190611334565b610abd8260028351610bcb565b604080518082019091526060815260006020820152610b71602083611347565b15610b9957610b81602083611347565b610b8c906020611334565b610b969083611321565b91505b602080840183905260405180855260008152908184010181811015610bbd57600080fd5b604052508290505b92915050565b6017816001600160401b031611610bf7578251610bf19060e0600585901b168317610d12565b50505050565b60ff816001600160401b031611610c37578251610c1f906018611fe0600586901b1617610d12565b508251610bf1906001600160401b0383166001610d92565b61ffff816001600160401b031611610c78578251610c60906019611fe0600586901b1617610d12565b508251610bf1906001600160401b0383166002610d92565b63ffffffff816001600160401b031611610cbb578251610ca390601a611fe0600586901b1617610d12565b508251610bf1906001600160401b0383166004610d92565b8251610cd290601b611fe0600586901b1617610d12565b508251610bf1906001600160401b0383166008610d92565b604080518082019091526060815260006020820152610d0b83838451610e17565b9392505050565b6040805180820190915260608152600060208201528251516000610d37826001611321565b905084602001518210610d5857610d5885610d53836002611369565b610ee8565b8451602083820101858153508051821115610d71578181525b5093949350505050565b815161056290601f611fe0600585901b1617610d12565b6040805180820190915260608152600060208201528351516000610db68285611321565b90508560200151811115610dd357610dd386610d53836002611369565b60006001610de386610100611467565b610ded9190611334565b90508651828101878319825116178152508051831115610e0b578281525b50959695505050505050565b6040805180820190915260608152600060208201528251821115610e3a57600080fd5b8351516000610e498483611321565b90508560200151811115610e6657610e6686610d53836002611369565b855180518382016020019160009180851115610e80578482525b505050602086015b60208610610ec05780518252610e9f602083611321565b9150610eac602082611321565b9050610eb9602087611334565b9550610e88565b51815160001960208890036101000a0190811690199190911617905250849150509392505050565b8151610ef48383610b51565b50610bf18382610cea565b6040518060400160405280610f27604051806040016040528060608152602001600081525090565b8152602001600081525090565b634e487b7160e01b600052604160045260246000fd5b604051601f8201601f191681016001600160401b0381118282101715610f7257610f72610f34565b604052919050565b60006001600160401b03821115610f9357610f93610f34565b50601f01601f191660200190565b600082601f830112610fb257600080fd5b8135610fc5610fc082610f7a565b610f4a565b818152846020838601011115610fda57600080fd5b816020850160208301376000918101602001919091529392505050565b60008060006060848603121561100c57600080fd5b8335925060208401356001600160401b0381111561102957600080fd5b61103586828701610fa1565b92505060408401356001600160401b0381111561105157600080fd5b61105d86828701610fa1565b9150509250925092565b80356001600160a01b038116811461107e57600080fd5b919050565b600080600080600060a0868803121561109b57600080fd5b6110a486611067565b94506020860135935060408601356001600160401b03811681146110c757600080fd5b9250606086013563ffffffff811681146110e057600080fd5b949793965091946080013592915050565b60005b8381101561110c5781810151838201526020016110f4565b50506000910152565b6000815180845261112d8160208601602086016110f1565b601f01601f19169290920160200192915050565b602081526000610d0b6020830184611115565b60006020828403121561116657600080fd5b610d0b82611067565b60006020828403121561118157600080fd5b81516001600160401b0381111561119757600080fd5b8201601f810184136111a857600080fd5b80516111b6610fc082610f7a565b8181528560208385010111156111cb57600080fd5b6111dc8260208301602086016110f1565b95945050505050565b600181811c908216806111f957607f821691505b60208210810361121957634e487b7160e01b600052602260045260246000fd5b50919050565b634e487b7160e01b600052601160045260246000fd5b6000600182016112475761124761121f565b5060010190565b60018060a01b038516815283602082015282604082015260a06060820152600060a082015260c06080820152600061128960c0830184611115565b9695505050505050565b634e487b7160e01b600052602160045260246000fd5b634e487b7160e01b600052603260045260246000fd5b6001600160401b038616815260a0602082015260006112e160a0830187611115565b61ffff9590951660408301525063ffffffff92909216606083015260809091015292915050565b60006020828403121561131a57600080fd5b5051919050565b80820180821115610bc557610bc561121f565b81810381811115610bc557610bc561121f565b60008261136457634e487b7160e01b600052601260045260246000fd5b500690565b8082028115828204841417610bc557610bc561121f565b6001815b60018411156113bb5780850481111561139f5761139f61121f565b60018416156113ad57908102905b60019390931c928002611384565b935093915050565b6000826113d257506001610bc5565b816113df57506000610bc5565b81600181146113f557600281146113ff5761141b565b6001915050610bc5565b60ff8411156114105761141061121f565b50506001821b610bc5565b5060208310610133831016604e8410600b841016171561143e575081810a610bc5565b61144b6000198484611380565b806000190482111561145f5761145f61121f565b029392505050565b6000610d0b83836113c356fea2646970667358221220194bf0d36298b2eca108d48f60298d377dc76d2186537b1be434cde592bf63cc64736f6c634300081b0033636f6e7374207b20657468657273207d203d20617761697420696d706f727428276e706d3a65746865727340362e31302e3027293b636f6e73742048617368203d20617761697420696d706f727428276e706d3a697066732d6f6e6c792d6861736840342e302e3027293b636f6e737420617069526573706f6e7365203d2061776169742046756e6374696f6e732e6d616b654874747052657175657374287b2020202075726c3a206068747470733a2f2f6170692e627269646765646174616f75747075742e636f6d2f6170692f76322f4f446174612f746573742f50726f70657274792827505f35646261316662393461613430353562396632393639366627293f6163636573735f746f6b656e3d3662616361353437373432633666393661366666373162313338343234663231602c7d293b636f6e7374207265616c45737461746541646472657373203d20617069526573706f6e73652e646174612e556e706172736564416464726573733b636f6e737420796561724275696c74203d204e756d62657228617069526573706f6e73652e646174612e596561724275696c74293b636f6e7374206c6f7453697a6553717561726546656574203d204e756d62657228617069526573706f6e73652e646174612e4c6f7453697a6553717561726546656574293b636f6e7374206c6976696e6741726561203d204e756d62657228617069526573706f6e73652e646174612e4c6976696e6741726561293b636f6e737420626564726f6f6d73546f74616c203d204e756d62657228617069526573706f6e73652e646174612e426564726f6f6d73546f74616c293b636f6e7374206d65746164617461203d207b6e616d653a20605265616c2045737461746520546f6b656e602c617474726962757465733a205b7b2074726169745f747970653a20607265616c45737461746541646472657373602c2076616c75653a207265616c45737461746541646472657373207d2c7b2074726169745f747970653a2060796561724275696c74602c2076616c75653a20796561724275696c74207d2c7b2074726169745f747970653a20606c6f7453697a6553717561726546656574602c2076616c75653a206c6f7453697a6553717561726546656574207d2c7b2074726169745f747970653a20606c6976696e6741726561602c2076616c75653a206c6976696e6741726561207d2c7b2074726169745f747970653a2060626564726f6f6d73546f74616c602c2076616c75653a20626564726f6f6d73546f74616c207d5d7d3b636f6e7374206d65746164617461537472696e67203d204a534f4e2e737472696e67696679286d65746164617461293b636f6e73742069706673436964203d20617761697420486173682e6f66286d65746164617461537472696e67293b72657475726e2046756e6374696f6e732e656e636f6465537472696e672860697066733a2f2f247b697066734369647d60293b636f6e7374207b20657468657273207d203d20617761697420696d706f727428276e706d3a65746865727340362e31302e3027293b636f6e737420616269436f646572203d206574686572732e416269436f6465722e64656661756c74416269436f64657228293b636f6e737420746f6b656e4964203d20617267735b305d3b636f6e737420617069526573706f6e7365203d2061776169742046756e6374696f6e732e6d616b654874747052657175657374287b2020202075726c3a206068747470733a2f2f6170692e627269646765646174616f75747075742e636f6d2f6170692f76322f4f446174612f746573742f50726f70657274792827505f35646261316662393461613430353562396632393639366627293f6163636573735f746f6b656e3d3662616361353437373432633666393661366666373162313338343234663231602c7d293b636f6e7374206c6973745072696365203d204e756d62657228617069526573706f6e73652e646174612e4c6973745072696365293b636f6e7374206f726967696e616c4c6973745072696365203d204e756d62657228617069526573706f6e73652e646174612e4f726967696e616c4c6973745072696365293b636f6e737420746178417373657373656456616c7565203d204e756d62657228617069526573706f6e73652e646174612e546178417373657373656456616c7565293b636f6e737420656e636f646564203d20616269436f6465722e656e636f6465285b6075696e74323536602c206075696e74323536602c206075696e74323536602c206075696e74323536605d2c205b746f6b656e49642c206c69737450726963652c206f726967696e616c4c69737450726963652c20746178417373657373656456616c75655d293b72657475726e206574686572732e676574427974657328656e636f646564293b",
  "linkReferences": {},
  "deployedLinkReferences": {}
}